{
  "address": "0x9fE46736679d2D9a65F0992F2272dE9f3c7fa6e0",
  "abi": [
    {
      "inputs": [
        {
          "internalType": "string",
          "name": "name",
          "type": "string"
        },
        {
          "internalType": "uint256",
          "name": "cnic",
          "type": "uint256"
        }
      ],
      "name": "addInfo",
      "outputs": [],
      "stateMutability": "nonpayable",
      "type": "function"
    },
    {
      "inputs": [
        {
          "internalType": "uint256",
          "name": "",
          "type": "uint256"
        }
      ],
      "name": "userInfo",
      "outputs": [
        {
          "internalType": "string",
          "name": "name",
          "type": "string"
        },
        {
          "internalType": "uint256",
          "name": "cnic",
          "type": "uint256"
        }
      ],
      "stateMutability": "view",
      "type": "function"
    }
  ],
  "transactionHash": "0xf5bf8761d3fcf22710e0edbd4bd4f26cdb97e183801531d5e38c5250d09db3b9",
  "args": [],
  "numDeployments": 1,
  "solcInputHash": "7b352ca0e7b5be3116811f4f3ff84a4f",
  "bytecode": "0x6080604052600060015534801561001557600080fd5b5061065b806100256000396000f3fe608060405234801561001057600080fd5b50600436106100365760003560e01c806351d70bc41461003b578063cd6bc3dd1461006c575b600080fd5b610055600480360381019061005091906102b6565b610088565b60405161006392919061038b565b60405180910390f35b610086600480360381019061008191906104f0565b610144565b005b6000818154811061009857600080fd5b90600052602060002090600202016000915090508060000180546100bb9061057b565b80601f01602080910402602001604051908101604052809291908181526020018280546100e79061057b565b80156101345780601f1061010957610100808354040283529160200191610134565b820191906000526020600020905b81548152906001019060200180831161011757829003601f168201915b5050505050908060010154905082565b6000604051806040016040528084815260200183815250908060018154018082558091505060019003906000526020600020906002020160009091909190915060008201518160000190805190602001906101a09291906101c9565b50602082015181600101555050600160008154809291906101c0906105dc565b91905055505050565b8280546101d59061057b565b90600052602060002090601f0160209004810192826101f7576000855561023e565b82601f1061021057805160ff191683800117855561023e565b8280016001018555821561023e579182015b8281111561023d578251825591602001919060010190610222565b5b50905061024b919061024f565b5090565b5b80821115610268576000816000905550600101610250565b5090565b6000604051905090565b600080fd5b600080fd5b6000819050919050565b61029381610280565b811461029e57600080fd5b50565b6000813590506102b08161028a565b92915050565b6000602082840312156102cc576102cb610276565b5b60006102da848285016102a1565b91505092915050565b600081519050919050565b600082825260208201905092915050565b60005b8381101561031d578082015181840152602081019050610302565b8381111561032c576000848401525b50505050565b6000601f19601f8301169050919050565b600061034e826102e3565b61035881856102ee565b93506103688185602086016102ff565b61037181610332565b840191505092915050565b61038581610280565b82525050565b600060408201905081810360008301526103a58185610343565b90506103b4602083018461037c565b9392505050565b600080fd5b600080fd5b7f4e487b7100000000000000000000000000000000000000000000000000000000600052604160045260246000fd5b6103fd82610332565b810181811067ffffffffffffffff8211171561041c5761041b6103c5565b5b80604052505050565b600061042f61026c565b905061043b82826103f4565b919050565b600067ffffffffffffffff82111561045b5761045a6103c5565b5b61046482610332565b9050602081019050919050565b82818337600083830152505050565b600061049361048e84610440565b610425565b9050828152602081018484840111156104af576104ae6103c0565b5b6104ba848285610471565b509392505050565b600082601f8301126104d7576104d66103bb565b5b81356104e7848260208601610480565b91505092915050565b6000806040838503121561050757610506610276565b5b600083013567ffffffffffffffff8111156105255761052461027b565b5b610531858286016104c2565b9250506020610542858286016102a1565b9150509250929050565b7f4e487b7100000000000000000000000000000000000000000000000000000000600052602260045260246000fd5b6000600282049050600182168061059357607f821691505b602082108114156105a7576105a661054c565b5b50919050565b7f4e487b7100000000000000000000000000000000000000000000000000000000600052601160045260246000fd5b60006105e782610280565b91507fffffffffffffffffffffffffffffffffffffffffffffffffffffffffffffffff82141561061a576106196105ad565b5b60018201905091905056fea264697066735822122025ba9962278aea957e0a27d627d6c8361c3123c5b69fedc9ab83fa1dc3bafcd864736f6c63430008080033",
  "devdoc": {
    "kind": "dev",
    "methods": {},
    "version": 1
  },
  "userdoc": {
    "kind": "user",
    "methods": {},
    "version": 1
  },
  "storageLayout": {
    "storage": [
      {
        "astId": 10,
        "contract": "contracts/UserInfo.sol:UserInfo",
        "label": "userInfo",
        "offset": 0,
        "slot": "0",
        "type": "t_array(t_struct(info)6_storage)dyn_storage"
      },
      {
        "astId": 13,
        "contract": "contracts/UserInfo.sol:UserInfo",
        "label": "arraySize",
        "offset": 0,
        "slot": "1",
        "type": "t_uint256"
      }
    ],
    "types": {
      "t_array(t_struct(info)6_storage)dyn_storage": {
        "base": "t_struct(info)6_storage",
        "encoding": "dynamic_array",
        "label": "struct UserInfo.info[]",
        "numberOfBytes": "32"
      },
      "t_string_storage": {
        "encoding": "bytes",
        "label": "string",
        "numberOfBytes": "32"
      },
      "t_struct(info)6_storage": {
        "encoding": "inplace",
        "label": "struct UserInfo.info",
        "members": [
          {
            "astId": 3,
            "contract": "contracts/UserInfo.sol:UserInfo",
            "label": "name",
            "offset": 0,
            "slot": "0",
            "type": "t_string_storage"
          },
          {
            "astId": 5,
            "contract": "contracts/UserInfo.sol:UserInfo",
            "label": "cnic",
            "offset": 0,
            "slot": "1",
            "type": "t_uint256"
          }
        ],
        "numberOfBytes": "64"
      },
      "t_uint256": {
        "encoding": "inplace",
        "label": "uint256",
        "numberOfBytes": "32"
      }
    }
  }
}